{
  "contractName": "Adoption",
  "abi": [
    {
      "constant": true,
      "inputs": [
        {
          "name": "",
          "type": "address"
        }
      ],
      "name": "amounts",
      "outputs": [
        {
          "name": "",
          "type": "uint256"
        }
      ],
      "payable": false,
      "stateMutability": "view",
      "type": "function"
    },
    {
      "constant": true,
      "inputs": [],
      "name": "totalCollected",
      "outputs": [
        {
          "name": "",
          "type": "uint256"
        }
      ],
      "payable": false,
      "stateMutability": "view",
      "type": "function"
    },
    {
      "inputs": [],
      "payable": false,
      "stateMutability": "nonpayable",
      "type": "constructor"
    },
    {
      "constant": true,
      "inputs": [],
      "name": "isContractStopped",
      "outputs": [
        {
          "name": "",
          "type": "uint256"
        }
      ],
      "payable": false,
      "stateMutability": "view",
      "type": "function"
    },
    {
      "constant": false,
      "inputs": [],
      "name": "stopContract",
      "outputs": [],
      "payable": false,
      "stateMutability": "nonpayable",
      "type": "function"
    },
    {
      "constant": false,
      "inputs": [],
      "name": "resumeContract",
      "outputs": [],
      "payable": false,
      "stateMutability": "nonpayable",
      "type": "function"
    },
    {
      "constant": false,
      "inputs": [
        {
          "name": "petId",
          "type": "uint256"
        },
        {
          "name": "amount",
          "type": "uint256"
        }
      ],
      "name": "adopt",
      "outputs": [],
      "payable": true,
      "stateMutability": "payable",
      "type": "function"
    },
    {
      "constant": false,
      "inputs": [
        {
          "name": "petId",
          "type": "uint256"
        }
      ],
      "name": "release",
      "outputs": [
        {
          "name": "",
          "type": "uint256"
        }
      ],
      "payable": false,
      "stateMutability": "nonpayable",
      "type": "function"
    },
    {
      "constant": false,
      "inputs": [
        {
          "name": "collectionAddress",
          "type": "address"
        },
        {
          "name": "partnerAddress",
          "type": "address"
        }
      ],
      "name": "withdraw",
      "outputs": [],
      "payable": true,
      "stateMutability": "payable",
      "type": "function"
    },
    {
      "constant": true,
      "inputs": [],
      "name": "getAdopters",
      "outputs": [
        {
          "name": "",
          "type": "address[16]"
        }
      ],
      "payable": false,
      "stateMutability": "view",
      "type": "function"
    }
  ],
  "bytecode": "0x60806040526000600260006101000a81548160ff02191690831515021790555034801561002b57600080fd5b506040516100389061009a565b604051809103906000f080158015610054573d6000803e3d6000fd5b50600260016101000a81548173ffffffffffffffffffffffffffffffffffffffff021916908373ffffffffffffffffffffffffffffffffffffffff1602179055506100a7565b6105318061089883390190565b6107e2806100b66000396000f3fe6080604052600436106100865760003560e01c80635c2a9d8c116100595780635c2a9d8c146101a95780636eb3cec4146101e1578063c4bc5da51461020c578063e29eb83614610223578063f940e3851461024e57610086565b806312253a6c1461008b57806337bdc99b146100a25780633de4eb17146100f157806355a3b2c114610144575b600080fd5b34801561009757600080fd5b506100a06102b2565b005b3480156100ae57600080fd5b506100db600480360360208110156100c557600080fd5b81019080803590602001909291905050506102cf565b6040518082815260200191505060405180910390f35b3480156100fd57600080fd5b506101066103bf565b6040518082601060200280838360005b83811015610131578082015181840152602081019050610116565b5050505090500191505060405180910390f35b34801561015057600080fd5b506101936004803603602081101561016757600080fd5b81019080803573ffffffffffffffffffffffffffffffffffffffff169060200190929190505050610477565b6040518082815260200191505060405180910390f35b6101df600480360360408110156101bf57600080fd5b81019080803590602001909291908035906020019092919050505061048f565b005b3480156101ed57600080fd5b506101f6610680565b6040518082815260200191505060405180910390f35b34801561021857600080fd5b506102216106af565b005b34801561022f57600080fd5b506102386106cc565b6040518082815260200191505060405180910390f35b6102b06004803603604081101561026457600080fd5b81019080803573ffffffffffffffffffffffffffffffffffffffff169060200190929190803573ffffffffffffffffffffffffffffffffffffffff1690602001909291905050506106d2565b005b6001600260006101000a81548160ff021916908315150217905550565b6000600260009054906101000a900460ff16156102eb57600080fd5b600082101580156102fd5750600f8211155b61030657600080fd5b600260019054906101000a900473ffffffffffffffffffffffffffffffffffffffff1673ffffffffffffffffffffffffffffffffffffffff1663475d5709836040518263ffffffff1660e01b815260040180828152602001915050602060405180830381600087803b15801561037b57600080fd5b505af115801561038f573d6000803e3d6000fd5b505050506040513d60208110156103a557600080fd5b810190808051906020019092919050505050819050919050565b6103c7610793565b600260019054906101000a900473ffffffffffffffffffffffffffffffffffffffff1673ffffffffffffffffffffffffffffffffffffffff16633de4eb176040518163ffffffff1660e01b81526004016102006040518083038186803b15801561043057600080fd5b505afa158015610444573d6000803e3d6000fd5b505050506040513d601f19601f8201168201806040525061020081101561046a57600080fd5b8101908091905050905090565b60006020528060005260406000206000915090505481565b600260009054906101000a900460ff16156104a957600080fd5b6000341415610520576040517f08c379a000000000000000000000000000000000000000000000000000000000815260040180806020018281038252600e8152602001807f696e76616c696420616d6f756e7400000000000000000000000000000000000081525060200191505060405180910390fd5b600082101580156105325750600f8211155b61053b57600080fd5b600260019054906101000a900473ffffffffffffffffffffffffffffffffffffffff1673ffffffffffffffffffffffffffffffffffffffff1663f3de7f6d33846040518363ffffffff1660e01b8152600401808373ffffffffffffffffffffffffffffffffffffffff1673ffffffffffffffffffffffffffffffffffffffff16815260200182815260200192505050602060405180830381600087803b1580156105e457600080fd5b505af11580156105f8573d6000803e3d6000fd5b505050506040513d602081101561060e57600080fd5b810190808051906020019092919050505050346000803373ffffffffffffffffffffffffffffffffffffffff1673ffffffffffffffffffffffffffffffffffffffff16815260200190815260200160002060008282540192505081905550346001600082825401925050819055505050565b600060011515600260009054906101000a900460ff161515146106a45760006106a7565b60015b60ff16905090565b6000600260006101000a81548160ff021916908315150217905550565b60015481565b6000600154116106e157600080fd5b8173ffffffffffffffffffffffffffffffffffffffff166108fc60026001548161070757fe5b049081150290604051600060405180830381858888f19350505050158015610733573d6000803e3d6000fd5b508073ffffffffffffffffffffffffffffffffffffffff166108fc60026001548161075a57fe5b049081150290604051600060405180830381858888f19350505050158015610786573d6000803e3d6000fd5b5060006001819055505050565b60405180610200016040528060109060208202803883398082019150509050509056fea165627a7a72305820d9c52844d94a4f766d12f0dd41fef77413ee3846b23f5f66c50e75c7ad9e9441002960806040526000601260006101000a81548160ff02191690831515021790555034801561002b57600080fd5b506104f68061003b6000396000f3fe608060405234801561001057600080fd5b50600436106100935760003560e01c8063c032846b11610066578063c032846b146101ea578063d5f7a2b41461020c578063e29eb8361461023c578063f1f095471461025a578063f3de7f6d1461028a57610093565b80633de4eb171461009857806343ae80d3146100de578063475d57091461014c57806355a3b2c114610192575b600080fd5b6100a06102f0565b6040518082601060200280838360005b838110156100cb5780820151818401526020810190506100b0565b5050505090500191505060405180910390f35b61010a600480360360208110156100f457600080fd5b8101908080359060200190929190505050610371565b604051808273ffffffffffffffffffffffffffffffffffffffff1673ffffffffffffffffffffffffffffffffffffffff16815260200191505060405180910390f35b6101786004803603602081101561016257600080fd5b81019080803590602001909291905050506103a4565b604051808215151515815260200191505060405180910390f35b6101d4600480360360208110156101a857600080fd5b81019080803573ffffffffffffffffffffffffffffffffffffffff1690602001909291905050506103df565b6040518082815260200191505060405180910390f35b6101f26103f7565b604051808215151515815260200191505060405180910390f35b61023a6004803603602081101561022257600080fd5b8101908080351515906020019092919050505061040e565b005b61024461042b565b6040518082815260200191505060405180910390f35b6102886004803603602081101561027057600080fd5b81019080803515159060200190929190505050610431565b005b6102d6600480360360408110156102a057600080fd5b81019080803573ffffffffffffffffffffffffffffffffffffffff1690602001909291908035906020019092919050505061044e565b604051808215151515815260200191505060405180910390f35b6102f86104a7565b6000601080602002604051908101604052809291908260108015610367576020028201915b8160009054906101000a900473ffffffffffffffffffffffffffffffffffffffff1673ffffffffffffffffffffffffffffffffffffffff168152602001906001019080831161031d575b5050505050905090565b6000816010811061037e57fe5b016000915054906101000a900473ffffffffffffffffffffffffffffffffffffffff1681565b60008082601081106103b257fe5b0160006101000a81549073ffffffffffffffffffffffffffffffffffffffff021916905560019050919050565b60106020528060005260406000206000915090505481565b6000601260009054906101000a900460ff16905090565b80601260006101000a81548160ff02191690831515021790555050565b60115481565b80601260006101000a81548160ff02191690831515021790555050565b6000826000836010811061045e57fe5b0160006101000a81548173ffffffffffffffffffffffffffffffffffffffff021916908373ffffffffffffffffffffffffffffffffffffffff1602179055506001905092915050565b60405180610200016040528060109060208202803883398082019150509050509056fea165627a7a72305820bb4816044168ad39ac66a30bede21fc942401a8215e1358d8e3aee3cd424ac600029",
  "source": "pragma solidity ^0.5.0;\r\n\r\nimport \"./EternalStorage.sol\";\r\n\r\n\r\ncontract Adoption {\r\n    mapping(address => uint) public amounts;\r\n    uint public totalCollected;\r\n    bool isStopped = false;\r\n\r\n    EternalStorage private _storage;\r\n\r\n    constructor() public{\r\n        _storage = new EternalStorage();\r\n    }\r\n\r\n    function isContractStopped() public view returns (uint){\r\n        return isStopped == true ? 1 : 0;\r\n    }\r\n\r\n    modifier stoppedInEmergency {\r\n        require(!isStopped);\r\n       _;\r\n    }\r\n\r\n    modifier onlyAuthorized {\r\n        // Check for authorization of msg.sender here\r\n       _;\r\n    }\r\n\r\n    function stopContract() public onlyAuthorized {\r\n        isStopped = true;\r\n    }\r\n\r\n    function resumeContract() public onlyAuthorized {\r\n        isStopped = false;\r\n    }\r\n\r\n    function adopt(uint petId,uint256 amount) payable public stoppedInEmergency {\r\n        require(msg.value != 0, 'invalid amount');\r\n        require(petId >= 0 && petId <= 15);\r\n        _storage.addPetID(msg.sender, petId);\r\n        amounts[msg.sender] += msg.value;\r\n        totalCollected += msg.value;\r\n    }\r\n\r\n     function release(uint petId) public stoppedInEmergency returns (uint) {\r\n        require(petId >= 0 && petId <= 15);\r\n         _storage.removePetID(petId);\r\n        return petId;\r\n    }\r\n\r\n    function withdraw(address payable collectionAddress,address payable partnerAddress) payable public {\r\n        require(totalCollected > 0x0);\r\n        collectionAddress.transfer(totalCollected/2);\r\n        partnerAddress.transfer(totalCollected/2);\r\n        totalCollected =0x0;\r\n    }\r\n\r\n\r\n    function getAdopters() public view returns (address[16]memory) {\r\n        return _storage.getAdopters();\r\n    }\r\n}",
  "sourcePath": "D:/Google Drive/Document/Material/BlockChain/SPT/Project/petlab/contracts/Adoption.sol",
  "compiler": {
    "name": "solc",
    "version": "0.5.8+commit.23d335f2.Emscripten.clang"
  },
  "schemaVersion": "3.0.13",
  "updatedAt": "2019-08-28T09:42:53.226Z",
  "devdoc": {
    "methods": {}
  },
  "userdoc": {
    "methods": {}
  }
}