{
  "contractName": "Adoption",
  "abi": [
    {
      "constant": true,
      "inputs": [
        {
          "name": "",
          "type": "uint256"
        }
      ],
      "name": "adopters",
      "outputs": [
        {
          "name": "",
          "type": "address"
        }
      ],
      "payable": false,
      "stateMutability": "view",
      "type": "function"
    },
    {
      "constant": true,
      "inputs": [
        {
          "name": "",
          "type": "address"
        }
      ],
      "name": "amounts",
      "outputs": [
        {
          "name": "",
          "type": "uint256"
        }
      ],
      "payable": false,
      "stateMutability": "view",
      "type": "function"
    },
    {
      "constant": true,
      "inputs": [],
      "name": "totalCollected",
      "outputs": [
        {
          "name": "",
          "type": "uint256"
        }
      ],
      "payable": false,
      "stateMutability": "view",
      "type": "function"
    },
    {
      "constant": false,
      "inputs": [],
      "name": "stopContract",
      "outputs": [],
      "payable": false,
      "stateMutability": "nonpayable",
      "type": "function"
    },
    {
      "constant": false,
      "inputs": [],
      "name": "resumeContract",
      "outputs": [],
      "payable": false,
      "stateMutability": "nonpayable",
      "type": "function"
    },
    {
      "constant": false,
      "inputs": [
        {
          "name": "petId",
          "type": "uint256"
        },
        {
          "name": "amount",
          "type": "uint256"
        }
      ],
      "name": "adopt",
      "outputs": [],
      "payable": true,
      "stateMutability": "payable",
      "type": "function"
    },
    {
      "constant": false,
      "inputs": [
        {
          "name": "petId",
          "type": "uint256"
        }
      ],
      "name": "release",
      "outputs": [
        {
          "name": "",
          "type": "uint256"
        }
      ],
      "payable": false,
      "stateMutability": "nonpayable",
      "type": "function"
    },
    {
      "constant": false,
      "inputs": [
        {
          "name": "collectionAddress",
          "type": "address"
        },
        {
          "name": "partnerAddress",
          "type": "address"
        }
      ],
      "name": "withdraw",
      "outputs": [],
      "payable": true,
      "stateMutability": "payable",
      "type": "function"
    },
    {
      "constant": true,
      "inputs": [],
      "name": "getAdopters",
      "outputs": [
        {
          "name": "",
          "type": "address[16]"
        }
      ],
      "payable": false,
      "stateMutability": "view",
      "type": "function"
    }
  ],
  "bytecode": "0x60806040526000601260006101000a81548160ff02191690831515021790555034801561002b57600080fd5b506106628061003b6000396000f3fe6080604052600436106100865760003560e01c806355a3b2c11161005957806355a3b2c1146101bf5780635c2a9d8c14610224578063c4bc5da51461025c578063e29eb83614610273578063f940e3851461029e57610086565b806312253a6c1461008b57806337bdc99b146100a25780633de4eb17146100f157806343ae80d314610144575b600080fd5b34801561009757600080fd5b506100a0610302565b005b3480156100ae57600080fd5b506100db600480360360208110156100c557600080fd5b810190808035906020019092919050505061031f565b6040518082815260200191505060405180910390f35b3480156100fd57600080fd5b50610106610374565b6040518082601060200280838360005b83811015610131578082015181840152602081019050610116565b5050505090500191505060405180910390f35b34801561015057600080fd5b5061017d6004803603602081101561016757600080fd5b81019080803590602001909291905050506103f5565b604051808273ffffffffffffffffffffffffffffffffffffffff1673ffffffffffffffffffffffffffffffffffffffff16815260200191505060405180910390f35b3480156101cb57600080fd5b5061020e600480360360208110156101e257600080fd5b81019080803573ffffffffffffffffffffffffffffffffffffffff169060200190929190505050610428565b6040518082815260200191505060405180910390f35b61025a6004803603604081101561023a57600080fd5b810190808035906020019092919080359060200190929190505050610440565b005b34801561026857600080fd5b5061027161052f565b005b34801561027f57600080fd5b5061028861054c565b6040518082815260200191505060405180910390f35b610300600480360360408110156102b457600080fd5b81019080803573ffffffffffffffffffffffffffffffffffffffff169060200190929190803573ffffffffffffffffffffffffffffffffffffffff169060200190929190505050610552565b005b6001601260006101000a81548160ff021916908315150217905550565b60008082101580156103325750600f8211155b61033b57600080fd5b6000826010811061034857fe5b0160006101000a81549073ffffffffffffffffffffffffffffffffffffffff0219169055819050919050565b61037c610613565b60006010806020026040519081016040528092919082601080156103eb576020028201915b8160009054906101000a900473ffffffffffffffffffffffffffffffffffffffff1673ffffffffffffffffffffffffffffffffffffffff16815260200190600101908083116103a1575b5050505050905090565b6000816010811061040257fe5b016000915054906101000a900473ffffffffffffffffffffffffffffffffffffffff1681565b60106020528060005260406000206000915090505481565b601260009054906101000a900460ff161561045a57600080fd5b80341461046657600080fd5b600082101580156104785750600f8211155b61048157600080fd5b336000836010811061048f57fe5b0160006101000a81548173ffffffffffffffffffffffffffffffffffffffff021916908373ffffffffffffffffffffffffffffffffffffffff16021790555034601060003373ffffffffffffffffffffffffffffffffffffffff1673ffffffffffffffffffffffffffffffffffffffff16815260200190815260200160002060008282540192505081905550346011600082825401925050819055505050565b6000601260006101000a81548160ff021916908315150217905550565b60115481565b60006011541161056157600080fd5b8173ffffffffffffffffffffffffffffffffffffffff166108fc60026011548161058757fe5b049081150290604051600060405180830381858888f193505050501580156105b3573d6000803e3d6000fd5b508073ffffffffffffffffffffffffffffffffffffffff166108fc6002601154816105da57fe5b049081150290604051600060405180830381858888f19350505050158015610606573d6000803e3d6000fd5b5060006011819055505050565b60405180610200016040528060109060208202803883398082019150509050509056fea165627a7a72305820f152ca62724a05d61fa5d8d7c5e8be7078f22d1b1d4e95d519c01d1e9f3883990029",
  "source": "pragma solidity ^0.5.0;\r\n\r\ncontract Adoption {\r\n    address[16] public adopters;\r\n    mapping(address => uint) public amounts;\r\n    uint public totalCollected;\r\n    bool isStopped = false;\r\n\r\n    modifier stoppedInEmergency {\r\n        require(!isStopped);\r\n       _;\r\n    }\r\n\r\n    modifier onlyAuthorized {\r\n        // Check for authorization of msg.sender here\r\n       _;\r\n    }\r\n\r\n    function stopContract() public onlyAuthorized {\r\n        isStopped = true;\r\n    }\r\n\r\n    function resumeContract() public onlyAuthorized {\r\n        isStopped = false;\r\n    }\r\n\r\n    function adopt(uint petId,uint256 amount) payable public stoppedInEmergency {\r\n        require(msg.value==amount);\r\n        require(petId >= 0 && petId <= 15);\r\n        adopters[petId] = msg.sender;\r\n        amounts[msg.sender] += msg.value;\r\n        totalCollected += msg.value;\r\n    }\r\n\r\n     function release(uint petId) public returns (uint) {\r\n        require(petId >= 0 && petId <= 15);\r\n        delete adopters[petId];\r\n        return petId;\r\n    }\r\n\r\n    function withdraw(address payable collectionAddress,address payable partnerAddress) payable public {\r\n        require(totalCollected > 0x0);\r\n        collectionAddress.transfer(totalCollected/2);\r\n        partnerAddress.transfer(totalCollected/2);\r\n        totalCollected =0x0;\r\n    }\r\n\r\n\r\n    function getAdopters() public view returns (address[16]memory) {\r\n        return adopters;\r\n    }\r\n}",
  "sourcePath": "D:/Google Drive/Document/Material/BlockChain/SPT/Project/petlab/contracts/Adoption.sol",
  "compiler": {
    "name": "solc",
    "version": "0.5.8+commit.23d335f2.Emscripten.clang"
  },
  "schemaVersion": "3.0.13",
  "updatedAt": "2019-08-26T13:20:44.381Z",
  "devdoc": {
    "methods": {}
  },
  "userdoc": {
    "methods": {}
  }
}