{
  "contractName": "Adoption",
  "abi": [
    {
      "constant": true,
      "inputs": [
        {
          "name": "",
          "type": "uint256"
        }
      ],
      "name": "adopters",
      "outputs": [
        {
          "name": "",
          "type": "address"
        }
      ],
      "payable": false,
      "stateMutability": "view",
      "type": "function"
    },
    {
      "constant": true,
      "inputs": [
        {
          "name": "",
          "type": "address"
        }
      ],
      "name": "amounts",
      "outputs": [
        {
          "name": "",
          "type": "uint256"
        }
      ],
      "payable": false,
      "stateMutability": "view",
      "type": "function"
    },
    {
      "constant": true,
      "inputs": [],
      "name": "totalCollected",
      "outputs": [
        {
          "name": "",
          "type": "uint256"
        }
      ],
      "payable": false,
      "stateMutability": "view",
      "type": "function"
    },
    {
      "constant": false,
      "inputs": [
        {
          "name": "petId",
          "type": "uint256"
        },
        {
          "name": "amount",
          "type": "uint256"
        }
      ],
      "name": "adopt",
      "outputs": [],
      "payable": true,
      "stateMutability": "payable",
      "type": "function"
    },
    {
      "constant": false,
      "inputs": [
        {
          "name": "petId",
          "type": "uint256"
        }
      ],
      "name": "release",
      "outputs": [
        {
          "name": "",
          "type": "uint256"
        }
      ],
      "payable": false,
      "stateMutability": "nonpayable",
      "type": "function"
    },
    {
      "constant": false,
      "inputs": [
        {
          "name": "collectionAddress",
          "type": "address"
        },
        {
          "name": "partnerAddress",
          "type": "address"
        }
      ],
      "name": "withdraw",
      "outputs": [],
      "payable": true,
      "stateMutability": "payable",
      "type": "function"
    },
    {
      "constant": true,
      "inputs": [],
      "name": "getAdopters",
      "outputs": [
        {
          "name": "",
          "type": "address[16]"
        }
      ],
      "payable": false,
      "stateMutability": "view",
      "type": "function"
    }
  ],
  "bytecode": "0x608060405234801561001057600080fd5b506105bb806100206000396000f3fe6080604052600436106100705760003560e01c806355a3b2c11161004e57806355a3b2c1146101925780635c2a9d8c146101f7578063e29eb8361461022f578063f940e3851461025a57610070565b806337bdc99b146100755780633de4eb17146100c457806343ae80d314610117575b600080fd5b34801561008157600080fd5b506100ae6004803603602081101561009857600080fd5b81019080803590602001909291905050506102be565b6040518082815260200191505060405180910390f35b3480156100d057600080fd5b506100d9610313565b6040518082601060200280838360005b838110156101045780820151818401526020810190506100e9565b5050505090500191505060405180910390f35b34801561012357600080fd5b506101506004803603602081101561013a57600080fd5b8101908080359060200190929190505050610394565b604051808273ffffffffffffffffffffffffffffffffffffffff1673ffffffffffffffffffffffffffffffffffffffff16815260200191505060405180910390f35b34801561019e57600080fd5b506101e1600480360360208110156101b557600080fd5b81019080803573ffffffffffffffffffffffffffffffffffffffff1690602001909291905050506103c7565b6040518082815260200191505060405180910390f35b61022d6004803603604081101561020d57600080fd5b8101908080359060200190929190803590602001909291905050506103df565b005b34801561023b57600080fd5b506102446104b4565b6040518082815260200191505060405180910390f35b6102bc6004803603604081101561027057600080fd5b81019080803573ffffffffffffffffffffffffffffffffffffffff169060200190929190803573ffffffffffffffffffffffffffffffffffffffff1690602001909291905050506104ba565b005b60008082101580156102d15750600f8211155b6102da57600080fd5b600082601081106102e757fe5b0160006101000a81549073ffffffffffffffffffffffffffffffffffffffff0219169055819050919050565b61031b61056c565b600060108060200260405190810160405280929190826010801561038a576020028201915b8160009054906101000a900473ffffffffffffffffffffffffffffffffffffffff1673ffffffffffffffffffffffffffffffffffffffff1681526020019060010190808311610340575b5050505050905090565b600081601081106103a157fe5b016000915054906101000a900473ffffffffffffffffffffffffffffffffffffffff1681565b60106020528060005260406000206000915090505481565b8034146103eb57600080fd5b600082101580156103fd5750600f8211155b61040657600080fd5b336000836010811061041457fe5b0160006101000a81548173ffffffffffffffffffffffffffffffffffffffff021916908373ffffffffffffffffffffffffffffffffffffffff16021790555034601060003373ffffffffffffffffffffffffffffffffffffffff1673ffffffffffffffffffffffffffffffffffffffff16815260200190815260200160002060008282540192505081905550346011600082825401925050819055505050565b60115481565b8173ffffffffffffffffffffffffffffffffffffffff166108fc6002601154816104e057fe5b049081150290604051600060405180830381858888f1935050505015801561050c573d6000803e3d6000fd5b508073ffffffffffffffffffffffffffffffffffffffff166108fc60026011548161053357fe5b049081150290604051600060405180830381858888f1935050505015801561055f573d6000803e3d6000fd5b5060006011819055505050565b60405180610200016040528060109060208202803883398082019150509050509056fea165627a7a72305820b3c1d29d50a98dfa0cd1d31371e4dc3c897982a6fbb8194b1921523da839db030029",
  "source": "pragma solidity ^0.5.0;\r\n\r\ncontract Adoption {\r\n    address[16] public adopters;\r\n    //address payable[16] collectedAmount;\r\n   // address payable ownerAddress=0x391b35602aeaFb626d0FfB0D19e2e1737810E7D7;\r\n    //address payable partnerAddress=0x0891f11258773f9624FaA5F37E46A8284ec2510C;\r\n    mapping(address => uint) public amounts;\r\n    uint public totalCollected;\r\n   // address payable contractAddress= address(this);\r\n\r\n\r\n    function adopt(uint petId,uint256 amount) payable public {\r\n        require(msg.value==amount);\r\n        require(petId >= 0 && petId <= 15);\r\n        adopters[petId] = msg.sender;\r\n        amounts[msg.sender] += msg.value;\r\n        totalCollected += msg.value;\r\n    }\r\n\r\n     function release(uint petId) public returns (uint) {\r\n        require(petId >= 0 && petId <= 15);\r\n        delete adopters[petId];\r\n        return petId;\r\n    }\r\n    function withdraw(address payable collectionAddress,address payable partnerAddress) payable public {\r\n        collectionAddress.transfer(totalCollected/2);\r\n        partnerAddress.transfer(totalCollected/2);\r\n        totalCollected =0x0;\r\n    }\r\n\r\n\r\n    function getAdopters() public view returns (address[16]memory) {\r\n        return adopters;\r\n    }\r\n}",
  "sourcePath": "D:/Google Drive/Document/Material/BlockChain/SPT/Project/petlab/contracts/Adoption.sol",
  "compiler": {
    "name": "solc",
    "version": "0.5.8+commit.23d335f2.Emscripten.clang"
  },
  "schemaVersion": "3.0.13",
  "updatedAt": "2019-08-26T12:34:33.887Z",
  "devdoc": {
    "methods": {}
  },
  "userdoc": {
    "methods": {}
  }
}