{
  "contractName": "Adoption",
  "abi": [
    {
      "constant": true,
      "inputs": [
        {
          "name": "",
          "type": "uint256"
        }
      ],
      "name": "adopters",
      "outputs": [
        {
          "name": "",
          "type": "address"
        }
      ],
      "payable": false,
      "stateMutability": "view",
      "type": "function"
    },
    {
      "constant": true,
      "inputs": [
        {
          "name": "",
          "type": "address"
        }
      ],
      "name": "amounts",
      "outputs": [
        {
          "name": "",
          "type": "uint256"
        }
      ],
      "payable": false,
      "stateMutability": "view",
      "type": "function"
    },
    {
      "constant": true,
      "inputs": [],
      "name": "totalCollected",
      "outputs": [
        {
          "name": "",
          "type": "uint256"
        }
      ],
      "payable": false,
      "stateMutability": "view",
      "type": "function"
    },
    {
      "inputs": [],
      "payable": false,
      "stateMutability": "nonpayable",
      "type": "constructor"
    },
    {
      "constant": false,
      "inputs": [],
      "name": "isContractStopped",
      "outputs": [
        {
          "name": "",
          "type": "bool"
        }
      ],
      "payable": false,
      "stateMutability": "nonpayable",
      "type": "function"
    },
    {
      "constant": false,
      "inputs": [],
      "name": "stopContract",
      "outputs": [],
      "payable": false,
      "stateMutability": "nonpayable",
      "type": "function"
    },
    {
      "constant": false,
      "inputs": [],
      "name": "resumeContract",
      "outputs": [],
      "payable": false,
      "stateMutability": "nonpayable",
      "type": "function"
    },
    {
      "constant": false,
      "inputs": [
        {
          "name": "petId",
          "type": "uint256"
        },
        {
          "name": "amount",
          "type": "uint256"
        }
      ],
      "name": "adopt",
      "outputs": [],
      "payable": true,
      "stateMutability": "payable",
      "type": "function"
    },
    {
      "constant": false,
      "inputs": [
        {
          "name": "petId",
          "type": "uint256"
        }
      ],
      "name": "release",
      "outputs": [
        {
          "name": "",
          "type": "uint256"
        }
      ],
      "payable": false,
      "stateMutability": "nonpayable",
      "type": "function"
    },
    {
      "constant": false,
      "inputs": [
        {
          "name": "collectionAddress",
          "type": "address"
        },
        {
          "name": "partnerAddress",
          "type": "address"
        }
      ],
      "name": "withdraw",
      "outputs": [],
      "payable": true,
      "stateMutability": "payable",
      "type": "function"
    },
    {
      "constant": true,
      "inputs": [],
      "name": "getAdopters",
      "outputs": [
        {
          "name": "",
          "type": "address[16]"
        }
      ],
      "payable": false,
      "stateMutability": "view",
      "type": "function"
    }
  ],
  "bytecode": "0x60806040526000601260006101000a81548160ff02191690831515021790555034801561002b57600080fd5b506040516100389061009a565b604051809103906000f080158015610054573d6000803e3d6000fd5b50601260016101000a81548173ffffffffffffffffffffffffffffffffffffffff021916908373ffffffffffffffffffffffffffffffffffffffff1602179055506100a7565b6104858061086f83390190565b6107b9806100b66000396000f3fe6080604052600436106100915760003560e01c80635c2a9d8c116100595780635c2a9d8c1461022f5780636eb3cec414610267578063c4bc5da514610296578063e29eb836146102ad578063f940e385146102d857610091565b806312253a6c1461009657806337bdc99b146100ad5780633de4eb17146100fc57806343ae80d31461014f57806355a3b2c1146101ca575b600080fd5b3480156100a257600080fd5b506100ab61033c565b005b3480156100b957600080fd5b506100e6600480360360208110156100d057600080fd5b8101908080359060200190929190505050610359565b6040518082815260200191505060405180910390f35b34801561010857600080fd5b50610111610449565b6040518082601060200280838360005b8381101561013c578082015181840152602081019050610121565b5050505090500191505060405180910390f35b34801561015b57600080fd5b506101886004803603602081101561017257600080fd5b81019080803590602001909291905050506104ca565b604051808273ffffffffffffffffffffffffffffffffffffffff1673ffffffffffffffffffffffffffffffffffffffff16815260200191505060405180910390f35b3480156101d657600080fd5b50610219600480360360208110156101ed57600080fd5b81019080803573ffffffffffffffffffffffffffffffffffffffff1690602001909291905050506104fd565b6040518082815260200191505060405180910390f35b6102656004803603604081101561024557600080fd5b810190808035906020019092919080359060200190929190505050610515565b005b34801561027357600080fd5b5061027c61066f565b604051808215151515815260200191505060405180910390f35b3480156102a257600080fd5b506102ab610686565b005b3480156102b957600080fd5b506102c26106a3565b6040518082815260200191505060405180910390f35b61033a600480360360408110156102ee57600080fd5b81019080803573ffffffffffffffffffffffffffffffffffffffff169060200190929190803573ffffffffffffffffffffffffffffffffffffffff1690602001909291905050506106a9565b005b6001601260006101000a81548160ff021916908315150217905550565b6000601260009054906101000a900460ff161561037557600080fd5b600082101580156103875750600f8211155b61039057600080fd5b601260019054906101000a900473ffffffffffffffffffffffffffffffffffffffff1673ffffffffffffffffffffffffffffffffffffffff1663475d5709836040518263ffffffff1660e01b815260040180828152602001915050602060405180830381600087803b15801561040557600080fd5b505af1158015610419573d6000803e3d6000fd5b505050506040513d602081101561042f57600080fd5b810190808051906020019092919050505050819050919050565b61045161076a565b60006010806020026040519081016040528092919082601080156104c0576020028201915b8160009054906101000a900473ffffffffffffffffffffffffffffffffffffffff1673ffffffffffffffffffffffffffffffffffffffff1681526020019060010190808311610476575b5050505050905090565b600081601081106104d757fe5b016000915054906101000a900473ffffffffffffffffffffffffffffffffffffffff1681565b60106020528060005260406000206000915090505481565b601260009054906101000a900460ff161561052f57600080fd5b60003414156105a6576040517f08c379a000000000000000000000000000000000000000000000000000000000815260040180806020018281038252600e8152602001807f696e76616c696420616d6f756e7400000000000000000000000000000000000081525060200191505060405180910390fd5b600082101580156105b85750600f8211155b6105c157600080fd5b33600083601081106105cf57fe5b0160006101000a81548173ffffffffffffffffffffffffffffffffffffffff021916908373ffffffffffffffffffffffffffffffffffffffff16021790555034601060003373ffffffffffffffffffffffffffffffffffffffff1673ffffffffffffffffffffffffffffffffffffffff16815260200190815260200160002060008282540192505081905550346011600082825401925050819055505050565b6000601260009054906101000a900460ff16905090565b6000601260006101000a81548160ff021916908315150217905550565b60115481565b6000601154116106b857600080fd5b8173ffffffffffffffffffffffffffffffffffffffff166108fc6002601154816106de57fe5b049081150290604051600060405180830381858888f1935050505015801561070a573d6000803e3d6000fd5b508073ffffffffffffffffffffffffffffffffffffffff166108fc60026011548161073157fe5b049081150290604051600060405180830381858888f1935050505015801561075d573d6000803e3d6000fd5b5060006011819055505050565b60405180610200016040528060109060208202803883398082019150509050509056fea165627a7a723058207b01c7d93bc6b9516adc5b92966632bb71ec51057ffbb5efce609ed5b80e5ae4002960806040526000601260006101000a81548160ff02191690831515021790555034801561002b57600080fd5b5061044a8061003b6000396000f3fe608060405234801561001057600080fd5b50600436106100885760003560e01c8063d5f7a2b41161005b578063d5f7a2b414610193578063e29eb836146101c3578063f1f09547146101e1578063f3de7f6d1461021157610088565b80633de4eb171461008d578063475d5709146100d357806355a3b2c114610119578063c032846b14610171575b600080fd5b610095610277565b6040518082601060200280838360005b838110156100c05780820151818401526020810190506100a5565b5050505090500191505060405180910390f35b6100ff600480360360208110156100e957600080fd5b81019080803590602001909291905050506102f8565b604051808215151515815260200191505060405180910390f35b61015b6004803603602081101561012f57600080fd5b81019080803573ffffffffffffffffffffffffffffffffffffffff169060200190929190505050610333565b6040518082815260200191505060405180910390f35b61017961034b565b604051808215151515815260200191505060405180910390f35b6101c1600480360360208110156101a957600080fd5b81019080803515159060200190929190505050610362565b005b6101cb61037f565b6040518082815260200191505060405180910390f35b61020f600480360360208110156101f757600080fd5b81019080803515159060200190929190505050610385565b005b61025d6004803603604081101561022757600080fd5b81019080803573ffffffffffffffffffffffffffffffffffffffff169060200190929190803590602001909291905050506103a2565b604051808215151515815260200191505060405180910390f35b61027f6103fb565b60006010806020026040519081016040528092919082601080156102ee576020028201915b8160009054906101000a900473ffffffffffffffffffffffffffffffffffffffff1673ffffffffffffffffffffffffffffffffffffffff16815260200190600101908083116102a4575b5050505050905090565b600080826010811061030657fe5b0160006101000a81549073ffffffffffffffffffffffffffffffffffffffff021916905560019050919050565b60106020528060005260406000206000915090505481565b6000601260009054906101000a900460ff16905090565b80601260006101000a81548160ff02191690831515021790555050565b60115481565b80601260006101000a81548160ff02191690831515021790555050565b600082600083601081106103b257fe5b0160006101000a81548173ffffffffffffffffffffffffffffffffffffffff021916908373ffffffffffffffffffffffffffffffffffffffff1602179055506001905092915050565b60405180610200016040528060109060208202803883398082019150509050509056fea165627a7a723058203d23313d3ef3a9bbbbf6643000e5bf011e39d876f59650749f315a71f67eae1c0029",
  "source": "pragma solidity ^0.5.0;\r\n\r\nimport \"./EternalStorage.sol\";\r\n\r\n\r\ncontract Adoption {\r\n    address[16] public adopters;\r\n    mapping(address => uint) public amounts;\r\n    uint public totalCollected;\r\n    bool isStopped = false;\r\n\r\n    EternalStorage private _storage;\r\n\r\n    constructor() public{\r\n        _storage = new EternalStorage();\r\n    }\r\n\r\n    function isContractStopped() public returns (bool){\r\n        return isStopped;\r\n    }\r\n\r\n    modifier stoppedInEmergency {\r\n        require(!isStopped);\r\n       _;\r\n    }\r\n\r\n    modifier onlyAuthorized {\r\n        // Check for authorization of msg.sender here\r\n       _;\r\n    }\r\n\r\n    function stopContract() public onlyAuthorized {\r\n        isStopped = true;\r\n    }\r\n\r\n    function resumeContract() public onlyAuthorized {\r\n        isStopped = false;\r\n    }\r\n\r\n    function adopt(uint petId,uint256 amount) payable public stoppedInEmergency {\r\n        require(msg.value != 0, 'invalid amount');\r\n        require(petId >= 0 && petId <= 15);\r\n        adopters[petId] = msg.sender;\r\n//        _storage.addPetID(msg.sender, petId);\r\n        amounts[msg.sender] += msg.value;\r\n        totalCollected += msg.value;\r\n    }\r\n\r\n     function release(uint petId) public stoppedInEmergency returns (uint) {\r\n        require(petId >= 0 && petId <= 15);\r\n         _storage.removePetID(petId);\r\n        return petId;\r\n    }\r\n\r\n    function withdraw(address payable collectionAddress,address payable partnerAddress) payable public {\r\n        require(totalCollected > 0x0);\r\n        collectionAddress.transfer(totalCollected/2);\r\n        partnerAddress.transfer(totalCollected/2);\r\n        totalCollected =0x0;\r\n    }\r\n\r\n\r\n    function getAdopters() public view returns (address[16]memory) {\r\n        return adopters;\r\n    }\r\n}",
  "sourcePath": "D:/Google Drive/Document/Material/BlockChain/SPT/Project/petlab/contracts/Adoption.sol",
  "compiler": {
    "name": "solc",
    "version": "0.5.8+commit.23d335f2.Emscripten.clang"
  },
  "schemaVersion": "3.0.13",
  "updatedAt": "2019-08-27T12:24:54.088Z",
  "devdoc": {
    "methods": {}
  },
  "userdoc": {
    "methods": {}
  }
}