{
  "contractName": "Adoption",
  "abi": [
    {
      "constant": true,
      "inputs": [
        {
          "name": "",
          "type": "uint256"
        }
      ],
      "name": "adopters",
      "outputs": [
        {
          "name": "",
          "type": "address"
        }
      ],
      "payable": false,
      "stateMutability": "view",
      "type": "function"
    },
    {
      "constant": false,
      "inputs": [
        {
          "name": "petId",
          "type": "uint256"
        }
      ],
      "name": "adopt",
      "outputs": [
        {
          "name": "",
          "type": "uint256"
        }
      ],
      "payable": false,
      "stateMutability": "nonpayable",
      "type": "function"
    },
    {
      "constant": false,
      "inputs": [
        {
          "name": "petId",
          "type": "uint256"
        }
      ],
      "name": "release",
      "outputs": [
        {
          "name": "",
          "type": "uint256"
        }
      ],
      "payable": false,
      "stateMutability": "nonpayable",
      "type": "function"
    },
    {
      "constant": true,
      "inputs": [],
      "name": "getAdopters",
      "outputs": [
        {
          "name": "",
          "type": "address[16]"
        }
      ],
      "payable": false,
      "stateMutability": "view",
      "type": "function"
    }
  ],
  "bytecode": "0x608060405234801561001057600080fd5b50610352806100206000396000f3fe608060405234801561001057600080fd5b506004361061004c5760003560e01c806337bdc99b146100515780633de4eb171461009357806343ae80d3146100d95780638588b2c514610147575b600080fd5b61007d6004803603602081101561006757600080fd5b8101908080359060200190929190505050610189565b6040518082815260200191505060405180910390f35b61009b6101de565b6040518082601060200280838360005b838110156100c65780820151818401526020810190506100ab565b5050505090500191505060405180910390f35b610105600480360360208110156100ef57600080fd5b810190808035906020019092919050505061025f565b604051808273ffffffffffffffffffffffffffffffffffffffff1673ffffffffffffffffffffffffffffffffffffffff16815260200191505060405180910390f35b6101736004803603602081101561015d57600080fd5b8101908080359060200190929190505050610292565b6040518082815260200191505060405180910390f35b600080821015801561019c5750600f8211155b6101a557600080fd5b600082601081106101b257fe5b0160006101000a81549073ffffffffffffffffffffffffffffffffffffffff0219169055819050919050565b6101e6610303565b6000601080602002604051908101604052809291908260108015610255576020028201915b8160009054906101000a900473ffffffffffffffffffffffffffffffffffffffff1673ffffffffffffffffffffffffffffffffffffffff168152602001906001019080831161020b575b5050505050905090565b6000816010811061026c57fe5b016000915054906101000a900473ffffffffffffffffffffffffffffffffffffffff1681565b60008082101580156102a55750600f8211155b6102ae57600080fd5b33600083601081106102bc57fe5b0160006101000a81548173ffffffffffffffffffffffffffffffffffffffff021916908373ffffffffffffffffffffffffffffffffffffffff160217905550819050919050565b60405180610200016040528060109060208202803883398082019150509050509056fea165627a7a72305820ff348ea2646e71de8ca90a1551d262a5c73511de5276b557bfc5a4b6919dfd0d0029",
  "source": "pragma solidity ^0.5.0;\r\n\r\ncontract Adoption {\r\n    address[16] public adopters;\r\n\r\n    function adopt(uint petId) public returns (uint) {\r\n        require(petId >= 0 && petId <= 15);\r\n        adopters[petId] = msg.sender;\r\n        return petId;\r\n    }\r\n\r\n    function release(uint petId) public returns (uint) {\r\n        require(petId >= 0 && petId <= 15);\r\n        delete adopters[petId];\r\n        return petId;\r\n    }\r\n\r\n    function getAdopters() public view returns (address[16]memory) {\r\n        return adopters;\r\n    }\r\n}",
  "sourcePath": "D:/Google Drive/Document/Material/BlockChain/SPT/Lab3/petlab/contracts/Adoption.sol",
  "compiler": {
    "name": "solc",
    "version": "0.5.8+commit.23d335f2.Emscripten.clang"
  },
  "schemaVersion": "3.0.11",
  "updatedAt": "2019-08-24T07:49:17.769Z",
  "devdoc": {
    "methods": {}
  },
  "userdoc": {
    "methods": {}
  }
}